{
  "_format": "hh-sol-artifact-1",
  "contractName": "NetworkState",
  "sourceName": "contracts/NetworkState.sol",
  "abi": [
    {
      "inputs": [
        {
          "internalType": "address",
          "name": "_tokenAddress",
          "type": "address"
        }
      ],
      "stateMutability": "nonpayable",
      "type": "constructor"
    },
    {
      "inputs": [],
      "name": "ReentrancyGuardReentrantCall",
      "type": "error"
    },
    {
      "anonymous": false,
      "inputs": [
        {
          "indexed": true,
          "internalType": "address",
          "name": "agent",
          "type": "address"
        },
        {
          "indexed": false,
          "internalType": "uint256",
          "name": "amount",
          "type": "uint256"
        }
      ],
      "name": "Staked",
      "type": "event"
    },
    {
      "anonymous": false,
      "inputs": [
        {
          "indexed": true,
          "internalType": "uint256",
          "name": "requestId",
          "type": "uint256"
        },
        {
          "indexed": true,
          "internalType": "address",
          "name": "agent",
          "type": "address"
        }
      ],
      "name": "TaskAccepted",
      "type": "event"
    },
    {
      "anonymous": false,
      "inputs": [
        {
          "indexed": true,
          "internalType": "uint256",
          "name": "requestId",
          "type": "uint256"
        },
        {
          "indexed": true,
          "internalType": "address",
          "name": "agent",
          "type": "address"
        }
      ],
      "name": "TaskRejected",
      "type": "event"
    },
    {
      "anonymous": false,
      "inputs": [
        {
          "indexed": true,
          "internalType": "uint256",
          "name": "requestId",
          "type": "uint256"
        },
        {
          "indexed": true,
          "internalType": "address",
          "name": "user",
          "type": "address"
        },
        {
          "indexed": true,
          "internalType": "address",
          "name": "agent",
          "type": "address"
        },
        {
          "indexed": false,
          "internalType": "uint256",
          "name": "amount",
          "type": "uint256"
        }
      ],
      "name": "TaskRequested",
      "type": "event"
    },
    {
      "anonymous": false,
      "inputs": [
        {
          "indexed": true,
          "internalType": "uint256",
          "name": "requestId",
          "type": "uint256"
        },
        {
          "indexed": true,
          "internalType": "address",
          "name": "user",
          "type": "address"
        },
        {
          "indexed": false,
          "internalType": "uint256",
          "name": "feedbackScore",
          "type": "uint256"
        }
      ],
      "name": "TaskReviewed",
      "type": "event"
    },
    {
      "anonymous": false,
      "inputs": [
        {
          "indexed": true,
          "internalType": "address",
          "name": "agent",
          "type": "address"
        },
        {
          "indexed": false,
          "internalType": "uint256",
          "name": "amount",
          "type": "uint256"
        }
      ],
      "name": "Unstaked",
      "type": "event"
    },
    {
      "inputs": [],
      "name": "STAKE_AMOUNT",
      "outputs": [
        {
          "internalType": "uint256",
          "name": "",
          "type": "uint256"
        }
      ],
      "stateMutability": "view",
      "type": "function"
    },
    {
      "inputs": [
        {
          "internalType": "uint256",
          "name": "_id",
          "type": "uint256"
        }
      ],
      "name": "acceptTask",
      "outputs": [],
      "stateMutability": "nonpayable",
      "type": "function"
    },
    {
      "inputs": [
        {
          "internalType": "address",
          "name": "",
          "type": "address"
        }
      ],
      "name": "agents",
      "outputs": [
        {
          "internalType": "uint64",
          "name": "socialReputation",
          "type": "uint64"
        },
        {
          "internalType": "uint64",
          "name": "feedbackQuality",
          "type": "uint64"
        },
        {
          "internalType": "uint64",
          "name": "tasksCompleted",
          "type": "uint64"
        },
        {
          "internalType": "uint64",
          "name": "feedbacksCompleted",
          "type": "uint64"
        },
        {
          "internalType": "uint256",
          "name": "totalSpent",
          "type": "uint256"
        },
        {
          "internalType": "uint256",
          "name": "totalEarned",
          "type": "uint256"
        },
        {
          "internalType": "bool",
          "name": "isActive",
          "type": "bool"
        }
      ],
      "stateMutability": "view",
      "type": "function"
    },
    {
      "inputs": [
        {
          "internalType": "address",
          "name": "_agent",
          "type": "address"
        },
        {
          "internalType": "uint256",
          "name": "_tipAmount",
          "type": "uint256"
        }
      ],
      "name": "payAgent",
      "outputs": [],
      "stateMutability": "nonpayable",
      "type": "function"
    },
    {
      "inputs": [
        {
          "internalType": "uint256",
          "name": "_id",
          "type": "uint256"
        }
      ],
      "name": "rejectTask",
      "outputs": [],
      "stateMutability": "nonpayable",
      "type": "function"
    },
    {
      "inputs": [],
      "name": "requestCounter",
      "outputs": [
        {
          "internalType": "uint256",
          "name": "",
          "type": "uint256"
        }
      ],
      "stateMutability": "view",
      "type": "function"
    },
    {
      "inputs": [
        {
          "internalType": "uint256",
          "name": "",
          "type": "uint256"
        }
      ],
      "name": "requests",
      "outputs": [
        {
          "internalType": "uint256",
          "name": "id",
          "type": "uint256"
        },
        {
          "internalType": "uint256",
          "name": "tipAmount",
          "type": "uint256"
        },
        {
          "internalType": "uint64",
          "name": "feedback",
          "type": "uint64"
        },
        {
          "internalType": "address",
          "name": "user",
          "type": "address"
        },
        {
          "internalType": "address",
          "name": "agent",
          "type": "address"
        },
        {
          "internalType": "bool",
          "name": "rejected",
          "type": "bool"
        },
        {
          "internalType": "bool",
          "name": "completed",
          "type": "bool"
        }
      ],
      "stateMutability": "view",
      "type": "function"
    },
    {
      "inputs": [
        {
          "internalType": "uint256",
          "name": "_id",
          "type": "uint256"
        },
        {
          "internalType": "uint256",
          "name": "_feedbackScore",
          "type": "uint256"
        }
      ],
      "name": "reviewTask",
      "outputs": [],
      "stateMutability": "nonpayable",
      "type": "function"
    },
    {
      "inputs": [],
      "name": "stake",
      "outputs": [],
      "stateMutability": "nonpayable",
      "type": "function"
    },
    {
      "inputs": [
        {
          "internalType": "address",
          "name": "",
          "type": "address"
        }
      ],
      "name": "stakes",
      "outputs": [
        {
          "internalType": "uint256",
          "name": "",
          "type": "uint256"
        }
      ],
      "stateMutability": "view",
      "type": "function"
    },
    {
      "inputs": [],
      "name": "token",
      "outputs": [
        {
          "internalType": "contract IERC20",
          "name": "",
          "type": "address"
        }
      ],
      "stateMutability": "view",
      "type": "function"
    },
    {
      "inputs": [],
      "name": "unstake",
      "outputs": [],
      "stateMutability": "nonpayable",
      "type": "function"
    },
    {
      "inputs": [
        {
          "internalType": "address",
          "name": "",
          "type": "address"
        }
      ],
      "name": "users",
      "outputs": [
        {
          "internalType": "uint64",
          "name": "feedbackQuality",
          "type": "uint64"
        },
        {
          "internalType": "uint64",
          "name": "feedbacksCompleted",
          "type": "uint64"
        },
        {
          "internalType": "uint256",
          "name": "totalSpent",
          "type": "uint256"
        }
      ],
      "stateMutability": "view",
      "type": "function"
    }
  ],
  "bytecode": "0x60a060405234801561001057600080fd5b506040516128aa3803806128aa833981810160405281019061003291906100d7565b60016000819055508073ffffffffffffffffffffffffffffffffffffffff1660808173ffffffffffffffffffffffffffffffffffffffff168152505050610104565b600080fd5b600073ffffffffffffffffffffffffffffffffffffffff82169050919050565b60006100a482610079565b9050919050565b6100b481610099565b81146100bf57600080fd5b50565b6000815190506100d1816100ab565b92915050565b6000602082840312156100ed576100ec610074565b5b60006100fb848285016100c2565b91505092915050565b608051612768610142600039600081816104470152818161079701528181610a0801528181610d5901528181611281015261193b01526127686000f3fe608060405234801561001057600080fd5b50600436106100cf5760003560e01c8063973a814e1161008c578063f7e5c81e11610066578063f7e5c81e146101f2578063faf5625f1461020e578063fc0c546a1461022c578063fd66091e1461024a576100cf565b8063973a814e14610186578063a87430ba146101a4578063e76b9b3f146101d6576100cf565b806316934fc4146100d45780631bf6912d146101045780632def6620146101205780633a4b66f11461012a5780637d81b40b1461013457806381d12c5814610150575b600080fd5b6100ee60048036038101906100e99190611aaf565b610280565b6040516100fb9190611af5565b60405180910390f35b61011e60048036038101906101199190611b3c565b610298565b005b6101286106fe565b005b61013261097c565b005b61014e60048036038101906101499190611b3c565b610bfa565b005b61016a60048036038101906101659190611b3c565b610eed565b60405161017d9796959493929190611bb6565b60405180910390f35b61018e610f9d565b60405161019b9190611af5565b60405180910390f35b6101be60048036038101906101b99190611aaf565b610fa3565b6040516101cd93929190611c25565b60405180910390f35b6101f060048036038101906101eb9190611c5c565b610ff5565b005b61020c60048036038101906102079190611c9c565b6113d1565b005b61021661192b565b6040516102239190611af5565b60405180910390f35b610234611939565b6040516102419190611d3b565b60405180910390f35b610264600480360381019061025f9190611aaf565b61195d565b6040516102779796959493929190611d56565b60405180910390f35b60056020528060005260406000206000915090505481565b600260003373ffffffffffffffffffffffffffffffffffffffff1673ffffffffffffffffffffffffffffffffffffffff16815260200190815260200160002060030160009054906101000a900460ff16610327576040517f08c379a000000000000000000000000000000000000000000000000000000000815260040161031e90611e22565b60405180910390fd5b61032f6119fc565b60006004600083815260200190815260200160002090503373ffffffffffffffffffffffffffffffffffffffff168160030160009054906101000a900473ffffffffffffffffffffffffffffffffffffffff1673ffffffffffffffffffffffffffffffffffffffff16146103d8576040517f08c379a00000000000000000000000000000000000000000000000000000000081526004016103cf90611e8e565b60405180910390fd5b8060030160149054906101000a900460ff1615801561040657508060030160159054906101000a900460ff16155b610445576040517f08c379a000000000000000000000000000000000000000000000000000000000815260040161043c90611efa565b60405180910390fd5b7f000000000000000000000000000000000000000000000000000000000000000073ffffffffffffffffffffffffffffffffffffffff1663a9059cbb3383600101546040518363ffffffff1660e01b81526004016104a4929190611f1a565b6020604051808303816000875af11580156104c3573d6000803e3d6000fd5b505050506040513d601f19601f820116820180604052508101906104e79190611f6f565b610526576040517f08c379a000000000000000000000000000000000000000000000000000000000815260040161051d90611fe8565b60405180910390fd5b8060010154600260003373ffffffffffffffffffffffffffffffffffffffff1673ffffffffffffffffffffffffffffffffffffffff168152602001908152602001600020600201600082825461057c9190612037565b92505081905550600260003373ffffffffffffffffffffffffffffffffffffffff1673ffffffffffffffffffffffffffffffffffffffff168152602001908152602001600020600001601081819054906101000a900467ffffffffffffffff16809291906105e99061206b565b91906101000a81548167ffffffffffffffff021916908367ffffffffffffffff160217905550508060010154600360008360020160089054906101000a900473ffffffffffffffffffffffffffffffffffffffff1673ffffffffffffffffffffffffffffffffffffffff1673ffffffffffffffffffffffffffffffffffffffff168152602001908152602001600020600101600082825461068a9190612037565b9250508190555060018160030160156101000a81548160ff0219169083151502179055503373ffffffffffffffffffffffffffffffffffffffff16827fc8717b61398fb9d7cacf49fe1e296b2f10e9711226b532842b6ffd642cb6a2c660405160405180910390a3506106fb611a42565b50565b6107066119fc565b600260003373ffffffffffffffffffffffffffffffffffffffff1673ffffffffffffffffffffffffffffffffffffffff16815260200190815260200160002060030160009054906101000a900460ff16610795576040517f08c379a000000000000000000000000000000000000000000000000000000000815260040161078c90611e22565b60405180910390fd5b7f000000000000000000000000000000000000000000000000000000000000000073ffffffffffffffffffffffffffffffffffffffff1663a9059cbb3369021e19e0c9bab24000006040518363ffffffff1660e01b81526004016107fa929190611f1a565b6020604051808303816000875af1158015610819573d6000803e3d6000fd5b505050506040513d601f19601f8201168201806040525081019061083d9190611f6f565b61087c576040517f08c379a0000000000000000000000000000000000000000000000000000000008152600401610873906120e7565b60405180910390fd5b6000600260003373ffffffffffffffffffffffffffffffffffffffff1673ffffffffffffffffffffffffffffffffffffffff16815260200190815260200160002060030160006101000a81548160ff021916908315150217905550600560003373ffffffffffffffffffffffffffffffffffffffff1673ffffffffffffffffffffffffffffffffffffffff168152602001908152602001600020600090553373ffffffffffffffffffffffffffffffffffffffff167f0f5bb82176feb1b5e747e28471aa92156a04d9f3ab9f45f28e2d704232b93f7569021e19e0c9bab240000060405161096a9190611af5565b60405180910390a261097a611a42565b565b6109846119fc565b6000600560003373ffffffffffffffffffffffffffffffffffffffff1673ffffffffffffffffffffffffffffffffffffffff1681526020019081526020016000205414610a06576040517f08c379a00000000000000000000000000000000000000000000000000000000081526004016109fd90612153565b60405180910390fd5b7f000000000000000000000000000000000000000000000000000000000000000073ffffffffffffffffffffffffffffffffffffffff166323b872dd333069021e19e0c9bab24000006040518463ffffffff1660e01b8152600401610a6d93929190612173565b6020604051808303816000875af1158015610a8c573d6000803e3d6000fd5b505050506040513d601f19601f82011682018060405250810190610ab09190611f6f565b610aef576040517f08c379a0000000000000000000000000000000000000000000000000000000008152600401610ae6906121f6565b60405180910390fd5b6001600260003373ffffffffffffffffffffffffffffffffffffffff1673ffffffffffffffffffffffffffffffffffffffff16815260200190815260200160002060030160006101000a81548160ff02191690831515021790555069021e19e0c9bab2400000600560003373ffffffffffffffffffffffffffffffffffffffff1673ffffffffffffffffffffffffffffffffffffffff168152602001908152602001600020819055503373ffffffffffffffffffffffffffffffffffffffff167f9e71bc8eea02a63969f509818f2dafb9254532904319f9dbda79b67bd34a5f3d69021e19e0c9bab2400000604051610be89190611af5565b60405180910390a2610bf8611a42565b565b610c026119fc565b60006004600083815260200190815260200160002090503373ffffffffffffffffffffffffffffffffffffffff168160030160009054906101000a900473ffffffffffffffffffffffffffffffffffffffff1673ffffffffffffffffffffffffffffffffffffffff161480610cc657503373ffffffffffffffffffffffffffffffffffffffff168160020160089054906101000a900473ffffffffffffffffffffffffffffffffffffffff1673ffffffffffffffffffffffffffffffffffffffff16145b610d05576040517f08c379a0000000000000000000000000000000000000000000000000000000008152600401610cfc90612262565b60405180910390fd5b8060030160159054906101000a900460ff1615610d57576040517f08c379a0000000000000000000000000000000000000000000000000000000008152600401610d4e906122ce565b60405180910390fd5b7f000000000000000000000000000000000000000000000000000000000000000073ffffffffffffffffffffffffffffffffffffffff1663a9059cbb8260020160089054906101000a900473ffffffffffffffffffffffffffffffffffffffff1683600101546040518363ffffffff1660e01b8152600401610dda929190611f1a565b6020604051808303816000875af1158015610df9573d6000803e3d6000fd5b505050506040513d601f19601f82011682018060405250810190610e1d9190611f6f565b610e5c576040517f08c379a0000000000000000000000000000000000000000000000000000000008152600401610e539061233a565b60405180910390fd5b60018160030160146101000a81548160ff0219169083151502179055508060030160009054906101000a900473ffffffffffffffffffffffffffffffffffffffff1673ffffffffffffffffffffffffffffffffffffffff16827fae1c93c6393c5abab2eaef81c691beeb381335c7913caabf8feaa0b24bd03cc060405160405180910390a350610eea611a42565b50565b60046020528060005260406000206000915090508060000154908060010154908060020160009054906101000a900467ffffffffffffffff16908060020160089054906101000a900473ffffffffffffffffffffffffffffffffffffffff16908060030160009054906101000a900473ffffffffffffffffffffffffffffffffffffffff16908060030160149054906101000a900460ff16908060030160159054906101000a900460ff16905087565b60015481565b60036020528060005260406000206000915090508060000160009054906101000a900467ffffffffffffffff16908060000160089054906101000a900467ffffffffffffffff16908060010154905083565b610ffd6119fc565b600260008373ffffffffffffffffffffffffffffffffffffffff1673ffffffffffffffffffffffffffffffffffffffff16815260200190815260200160002060030160009054906101000a900460ff1661108c576040517f08c379a0000000000000000000000000000000000000000000000000000000008152600401611083906123a6565b60405180910390fd5b600081116110cf576040517f08c379a00000000000000000000000000000000000000000000000000000000081526004016110c690612412565b60405180910390fd5b60006001600081546110e090612432565b91905081905590506040518060e00160405280828152602001838152602001600067ffffffffffffffff1681526020013373ffffffffffffffffffffffffffffffffffffffff1681526020018473ffffffffffffffffffffffffffffffffffffffff1681526020016000151581526020016000151581525060046000838152602001908152602001600020600082015181600001556020820151816001015560408201518160020160006101000a81548167ffffffffffffffff021916908367ffffffffffffffff16021790555060608201518160020160086101000a81548173ffffffffffffffffffffffffffffffffffffffff021916908373ffffffffffffffffffffffffffffffffffffffff16021790555060808201518160030160006101000a81548173ffffffffffffffffffffffffffffffffffffffff021916908373ffffffffffffffffffffffffffffffffffffffff16021790555060a08201518160030160146101000a81548160ff02191690831515021790555060c08201518160030160156101000a81548160ff0219169083151502179055509050507f000000000000000000000000000000000000000000000000000000000000000073ffffffffffffffffffffffffffffffffffffffff166323b872dd3330856040518463ffffffff1660e01b81526004016112dc93929190612173565b6020604051808303816000875af11580156112fb573d6000803e3d6000fd5b505050506040513d601f19601f8201168201806040525081019061131f9190611f6f565b61135e576040517f08c379a0000000000000000000000000000000000000000000000000000000008152600401611355906124c6565b60405180910390fd5b8273ffffffffffffffffffffffffffffffffffffffff163373ffffffffffffffffffffffffffffffffffffffff16827f6e5c922dc601d2627876c223ed8f3ba120b626602276ab6858ab32b9b91c0966856040516113bc9190611af5565b60405180910390a4506113cd611a42565b5050565b813373ffffffffffffffffffffffffffffffffffffffff166004600083815260200190815260200160002060020160089054906101000a900473ffffffffffffffffffffffffffffffffffffffff1673ffffffffffffffffffffffffffffffffffffffff1614611476576040517f08c379a000000000000000000000000000000000000000000000000000000000815260040161146d90612532565b60405180910390fd5b61147e6119fc565b60006004600085815260200190815260200160002090508060030160159054906101000a900460ff166114e6576040517f08c379a00000000000000000000000000000000000000000000000000000000081526004016114dd9061259e565b60405180910390fd5b60008160020160009054906101000a900467ffffffffffffffff1667ffffffffffffffff161461154b576040517f08c379a00000000000000000000000000000000000000000000000000000000081526004016115429061260a565b60405180910390fd5b6000831015801561155d5750600a8311155b61159c576040517f08c379a000000000000000000000000000000000000000000000000000000000815260040161159390612676565b60405180910390fd5b600260008260030160009054906101000a900473ffffffffffffffffffffffffffffffffffffffff1673ffffffffffffffffffffffffffffffffffffffff1673ffffffffffffffffffffffffffffffffffffffff168152602001908152602001600020600001601881819054906101000a900467ffffffffffffffff16809291906116269061206b565b91906101000a81548167ffffffffffffffff021916908367ffffffffffffffff16021790555050600283600260008460030160009054906101000a900473ffffffffffffffffffffffffffffffffffffffff1673ffffffffffffffffffffffffffffffffffffffff1673ffffffffffffffffffffffffffffffffffffffff16815260200190815260200160002060000160089054906101000a900467ffffffffffffffff166116d59190612696565b6116df9190612701565b600260008360030160009054906101000a900473ffffffffffffffffffffffffffffffffffffffff1673ffffffffffffffffffffffffffffffffffffffff1673ffffffffffffffffffffffffffffffffffffffff16815260200190815260200160002060000160086101000a81548167ffffffffffffffff021916908367ffffffffffffffff160217905550600360003373ffffffffffffffffffffffffffffffffffffffff1673ffffffffffffffffffffffffffffffffffffffff168152602001908152602001600020600001600881819054906101000a900467ffffffffffffffff16809291906117d19061206b565b91906101000a81548167ffffffffffffffff021916908367ffffffffffffffff16021790555050600283600360003373ffffffffffffffffffffffffffffffffffffffff1673ffffffffffffffffffffffffffffffffffffffff16815260200190815260200160002060000160009054906101000a900467ffffffffffffffff1661185c9190612696565b6118669190612701565b600360003373ffffffffffffffffffffffffffffffffffffffff1673ffffffffffffffffffffffffffffffffffffffff16815260200190815260200160002060000160006101000a81548167ffffffffffffffff021916908367ffffffffffffffff1602179055503373ffffffffffffffffffffffffffffffffffffffff16847f4c3ed193d646b6745cb226f4d24a3d53ede9d93a594fb7c93dec8437fda76a6b856040516119159190611af5565b60405180910390a350611926611a42565b505050565b69021e19e0c9bab240000081565b7f000000000000000000000000000000000000000000000000000000000000000081565b60026020528060005260406000206000915090508060000160009054906101000a900467ffffffffffffffff16908060000160089054906101000a900467ffffffffffffffff16908060000160109054906101000a900467ffffffffffffffff16908060000160189054906101000a900467ffffffffffffffff16908060010154908060020154908060030160009054906101000a900460ff16905087565b600260005403611a38576040517f3ee5aeb500000000000000000000000000000000000000000000000000000000815260040160405180910390fd5b6002600081905550565b6001600081905550565b600080fd5b600073ffffffffffffffffffffffffffffffffffffffff82169050919050565b6000611a7c82611a51565b9050919050565b611a8c81611a71565b8114611a9757600080fd5b50565b600081359050611aa981611a83565b92915050565b600060208284031215611ac557611ac4611a4c565b5b6000611ad384828501611a9a565b91505092915050565b6000819050919050565b611aef81611adc565b82525050565b6000602082019050611b0a6000830184611ae6565b92915050565b611b1981611adc565b8114611b2457600080fd5b50565b600081359050611b3681611b10565b92915050565b600060208284031215611b5257611b51611a4c565b5b6000611b6084828501611b27565b91505092915050565b600067ffffffffffffffff82169050919050565b611b8681611b69565b82525050565b611b9581611a71565b82525050565b60008115159050919050565b611bb081611b9b565b82525050565b600060e082019050611bcb600083018a611ae6565b611bd86020830189611ae6565b611be56040830188611b7d565b611bf26060830187611b8c565b611bff6080830186611b8c565b611c0c60a0830185611ba7565b611c1960c0830184611ba7565b98975050505050505050565b6000606082019050611c3a6000830186611b7d565b611c476020830185611b7d565b611c546040830184611ae6565b949350505050565b60008060408385031215611c7357611c72611a4c565b5b6000611c8185828601611a9a565b9250506020611c9285828601611b27565b9150509250929050565b60008060408385031215611cb357611cb2611a4c565b5b6000611cc185828601611b27565b9250506020611cd285828601611b27565b9150509250929050565b6000819050919050565b6000611d01611cfc611cf784611a51565b611cdc565b611a51565b9050919050565b6000611d1382611ce6565b9050919050565b6000611d2582611d08565b9050919050565b611d3581611d1a565b82525050565b6000602082019050611d506000830184611d2c565b92915050565b600060e082019050611d6b600083018a611b7d565b611d786020830189611b7d565b611d856040830188611b7d565b611d926060830187611b7d565b611d9f6080830186611ae6565b611dac60a0830185611ae6565b611db960c0830184611ba7565b98975050505050505050565b600082825260208201905092915050565b7f4e6f7420616e20616374697665206167656e7400000000000000000000000000600082015250565b6000611e0c601383611dc5565b9150611e1782611dd6565b602082019050919050565b60006020820190508181036000830152611e3b81611dff565b9050919050565b7f4e6f7420796f7572207461736b00000000000000000000000000000000000000600082015250565b6000611e78600d83611dc5565b9150611e8382611e42565b602082019050919050565b60006020820190508181036000830152611ea781611e6b565b9050919050565b7f5461736b20616c72656164792068616e646c6564000000000000000000000000600082015250565b6000611ee4601483611dc5565b9150611eef82611eae565b602082019050919050565b60006020820190508181036000830152611f1381611ed7565b9050919050565b6000604082019050611f2f6000830185611b8c565b611f3c6020830184611ae6565b9392505050565b611f4c81611b9b565b8114611f5757600080fd5b50565b600081519050611f6981611f43565b92915050565b600060208284031215611f8557611f84611a4c565b5b6000611f9384828501611f5a565b91505092915050565b7f5472616e73666572206661696c65640000000000000000000000000000000000600082015250565b6000611fd2600f83611dc5565b9150611fdd82611f9c565b602082019050919050565b6000602082019050818103600083015261200181611fc5565b9050919050565b7f4e487b7100000000000000000000000000000000000000000000000000000000600052601160045260246000fd5b600061204282611adc565b915061204d83611adc565b925082820190508082111561206557612064612008565b5b92915050565b600061207682611b69565b915067ffffffffffffffff82036120905761208f612008565b5b600182019050919050565b7f556e7374616b65206661696c6564000000000000000000000000000000000000600082015250565b60006120d1600e83611dc5565b91506120dc8261209b565b602082019050919050565b60006020820190508181036000830152612100816120c4565b9050919050565b7f416c7265616479207374616b6564000000000000000000000000000000000000600082015250565b600061213d600e83611dc5565b915061214882612107565b602082019050919050565b6000602082019050818103600083015261216c81612130565b9050919050565b60006060820190506121886000830186611b8c565b6121956020830185611b8c565b6121a26040830184611ae6565b949350505050565b7f5374616b65206661696c65640000000000000000000000000000000000000000600082015250565b60006121e0600c83611dc5565b91506121eb826121aa565b602082019050919050565b6000602082019050818103600083015261220f816121d3565b9050919050565b7f4e6f7420617574686f72697a6564000000000000000000000000000000000000600082015250565b600061224c600e83611dc5565b915061225782612216565b602082019050919050565b6000602082019050818103600083015261227b8161223f565b9050919050565b7f5461736b20616c726561647920636f6d706c6574656400000000000000000000600082015250565b60006122b8601683611dc5565b91506122c382612282565b602082019050919050565b600060208201905081810360008301526122e7816122ab565b9050919050565b7f526566756e64206661696c656400000000000000000000000000000000000000600082015250565b6000612324600d83611dc5565b915061232f826122ee565b602082019050919050565b6000602082019050818103600083015261235381612317565b9050919050565b7f4167656e74206973206e6f742061637469766500000000000000000000000000600082015250565b6000612390601383611dc5565b915061239b8261235a565b602082019050919050565b600060208201905081810360008301526123bf81612383565b9050919050565b7f416d6f756e74206d7573742062652067726561746572207468616e207a65726f600082015250565b60006123fc602083611dc5565b9150612407826123c6565b602082019050919050565b6000602082019050818103600083015261242b816123ef565b9050919050565b600061243d82611adc565b91507fffffffffffffffffffffffffffffffffffffffffffffffffffffffffffffffff820361246f5761246e612008565b5b600182019050919050565b7f5061796d656e74206661696c6564000000000000000000000000000000000000600082015250565b60006124b0600e83611dc5565b91506124bb8261247a565b602082019050919050565b600060208201905081810360008301526124df816124a3565b9050919050565b7f4e6f742072657175657374206f776e6572000000000000000000000000000000600082015250565b600061251c601183611dc5565b9150612527826124e6565b602082019050919050565b6000602082019050818103600083015261254b8161250f565b9050919050565b7f5461736b206e6f7420636f6d706c657465640000000000000000000000000000600082015250565b6000612588601283611dc5565b915061259382612552565b602082019050919050565b600060208201905081810360008301526125b78161257b565b9050919050565b7f5461736b20616c72656164792072657669657765640000000000000000000000600082015250565b60006125f4601583611dc5565b91506125ff826125be565b602082019050919050565b60006020820190508181036000830152612623816125e7565b9050919050565b7f496e76616c696420666565646261636b2073636f726500000000000000000000600082015250565b6000612660601683611dc5565b915061266b8261262a565b602082019050919050565b6000602082019050818103600083015261268f81612653565b9050919050565b60006126a182611b69565b91506126ac83611b69565b9250828201905067ffffffffffffffff8111156126cc576126cb612008565b5b92915050565b7f4e487b7100000000000000000000000000000000000000000000000000000000600052601260045260246000fd5b600061270c82611b69565b915061271783611b69565b925082612727576127266126d2565b5b82820490509291505056fea2646970667358221220df4708150f12c02a88a9847d070f10fbb88b3983869f58bf84820ad018ac234664736f6c634300081c0033",
  "linkReferences": {},
  "deployedLinkReferences": {}
}